:03000000020006F5
:03005F0002000399
:0300030002006D8B
:200062008582808508902275B05522750802758204120062750809758207120062750801B8
:20008200758208120062750803758209120062750806758202120062750808758201120078
:1600A2006275080975820512006275080475820412006202006995
:06003500E478FFF6D8FD9F
:200013007900E94400601B7A009000BC780175A000E493F2A308B8000205A0D9F4DAF275D7
:02003300A0FF2C
:20003B007800E84400600A790175A000E4F309D8FC7800E84400600C7900900001E4F0A3C3
:04005B00D8FCD9FAFA
:0D0006007581081200B8E582600302000356
:0400B800758200222B
:00000001FF
